S01B0000517569636B38363144575F6669726D776172652E7372656316
S11300000C942A000C943F000C943F000C943F0085
S11300100C943F000C943F000C943F000C943F0060
S11300200C943F000C943F000C943F000C943F0050
S11300300C943F000C943F000C943F000C943F0040
S11300400C943F000C943F000C943F000C943F0030
S11300500C943F0011241FBECFE5D4E0DEBFCDBF1A
S113006010E0A0E6B0E0ECEDF3E002C005900D92E4
S1130070AC36B107D9F70E9479010C94EC010C94C9
S11300800000AC9AAB9AAD9AAE9AAA9AA99AA89A89
S1130090089523B330E002C0359527958A95E2F799
S11300A020FD09C08BE49DE10197F1F700C0000039
S11300B081E090E0089580E090E00895D79A089553
S11300C0DF9A009741F0E9EFF0E03197F1F700C0D3
S11300D000000197C1F7DF980895662361F090E06E
S11300E0C298882314F4C19A01C0C198C29A880F97
S11300F09F5F6913F5CF0895CF93C82FC39864E029
S113010080E80E946D0068E08C2F0E946D00C39A05
S1130110CF910895CF93DF93D82FC62FC39863E070
S113012080EA0E946D0066E08D2F880F880F0E9480
S11301306D0068E08C2F0E946D00C39ADF91CF910F
S11301400895CF93DF93882351F0D82FC0E060E067
S11301508C2F880F0E948A00CF5FDC13F8CFDF91C9
S1130160CF910895BA9ABB9AB99A089582E00E94F1
S11301707C0080E30E947C0082E50E947C0086E093
S11301800E947C0008950F931F93CF93DF9300D0B8
S113019000D000D0CDB7DEB79C01245631092139F7
S11301A0314048F5FE0139968E010F5F1F4F2AE05A
S11301B030E0B9010E94C40192938293862F972F55
S11301C00E171F07B1F7EB81FC81EE59FF4F6081D9
S11301D082E00E948A00ED81FE81EE59FF4F60812A
S11301E084E00E948A00EF81F885EE59FF4F608118
S11301F086E00E948A0026960FB6F894DEBF0FBEF2
S1130200CDBFDF91CF911F910F9108950F931F934D
S1130210CF93DF9300D000D000D0CDB7DEB79C01E0
S1130220245631092139314048F5FE0139968E01B1
S11302300F5F1F4F2AE030E0B9010E94C40192937E
S11302408293862F972F0E171F07B1F7EB81FC813E
S1130250EE59FF4F608189E00E948A00ED81FE81A2
S1130260EE59FF4F60818BE00E948A00EF81F88590
S1130270EE59FF4F60818DE00E948A0026960FB6EA
S1130280F894DEBF0FBECDBFDF91CF911F910F91C8
S1130290089564E082E00E948A0064E084E00E94A1
S11302A08A0064E086E00E948A0064E089E00E949B
S11302B08A0064E08BE00E948A0064E08DE00E9482
S11302C08A0008950E945E000E9441000E94B200CC
S11302D0C39AC29AC19A83ED90E30197F1F700C0E3
S11302E000000E94B60088E00E94A1000E9449011B
S11302F008950E94620185E00E944900892B79F0EB
S113030080916000909161000196909361008093C8
S113031060000E94C30084E690E00E94600086E0D2
S11303200E944900892B79F08091600090916100CE
S1130330019790936100809360000E94C30084E65B
S113034090E00E94600084E00E944900892B59F0EB
S11303508091600090916100019690936100809378
S113036060000E94060183E00E944900892B19F273
S11303708091600090916100019790936100809357
S113038060000E940601B7CF97FB072E16F4009475
S113039007D077FD09D00E94D80107FC05D03EF4B0
S11303A0909581959F4F0895709561957F4F08951D
S11303B0AA1BBB1B51E107C0AA1FBB1FA617B70787
S11303C010F0A61BB70B881F991F5A95A9F78095A3
S10F03D09095BC01CD010895F894FFCF76
S10F03DC6400FA0ABC9E4ED6F68AFEDECF
S9030000FC
