S01B0000517569636B38363144575F6669726D776172652E7372656316
S11300000C942A000C943F000C943F000C943F0085
S11300100C943F000C943F000C943F000C943F0060
S11300200C943F000C943F000C943F000C943F0050
S11300300C943F000C943F000C943F000C943F0040
S11300400C943F000C943F000C943F000C943F0030
S11300500C943F0011241FBECFE5D4E0DEBFCDBF1A
S113006010E0A0E6B0E0ECEDF3E002C005900D92E4
S1130070AC36B107D9F70E9479010C94EC010C94C9
S11300800000662361F090E0C298882314F4C19ABA
S113009001C0C198C29A880F9F5F6913F5CF089574
S11300A0CF93C82FC39864E080E80E94410068E0C1
S11300B08C2F0E944100C39ACF910895CF93DF9370
S11300C0D82FC62FC39863E080EA0E94410066E0FF
S11300D08D2F880F880F0E94410068E08C2F0E94AA
S11300E04100C39ADF91CF910895CF93DF93882382
S11300F051F0D82FC0E060E08C2F880F0E945E0082
S1130100CF5FDC13F8CFDF91CF910895BA9ABB9AF1
S1130110B99A089582E00E94500080E30E94500042
S113012082E50E94500086E00E94500008950F93DB
S11301301F93CF93DF9300D000D000D0CDB7DEB7AC
S11301409C01245631092139314048F5FE01399684
S11301508E010F5F1F4F2AE030E0B9010E94C401F5
S113016092938293862F972F0E171F07B1F7EB8177
S1130170FC81EE59FF4F608182E00E945E00ED81B8
S1130180FE81EE59FF4F608184E00E945E00EF81A2
S1130190F885EE59FF4F608186E00E945E00269646
S11301A00FB6F894DEBF0FBECDBFDF91CF911F9184
S11301B00F9108950F931F93CF93DF9300D000D036
S11301C000D0CDB7DEB79C01245631092139314026
S11301D048F5FE0139968E010F5F1F4F2AE030E08B
S11301E0B9010E94C40192938293862F972F0E1710
S11301F01F07B1F7EB81FC81EE59FF4F608189E065
S11302000E945E00ED81FE81EE59FF4F60818BE01C
S11302100E945E00EF81F885EE59FF4F60818DE00A
S11302200E945E0026960FB6F894DEBF0FBECDBFC7
S1130230DF91CF911F910F91089564E082E00E94B5
S11302405E0064E084E00E945E0064E086E00E9458
S11302505E0064E089E00E945E0064E08BE00E943E
S11302605E0064E08DE00E945E000895AC9AAB9A53
S1130270AD9AAE9AAA9AA99AA89A089523B330E09F
S113028002C0359527958A95E2F720FD09C08BE4D5
S11302909DE10197F1F700C0000081E090E008952E
S11302A080E090E00895D79A0895DF9A009741F08E
S11302B0E9EFF0E03197F1F700C000000197C1F7D2
S11302C0DF9808950E9453010E9436010E9486001F
S11302D0C39AC29AC19A83ED90E30197F1F700C0E3
S11302E000000E948A0088E00E9475000E941D019F
S11302F008950E94620185E00E943E01892B79F0F5
S113030080916000909161000196909361008093C8
S113031060000E94970084E690E00E94550186E008
S11303200E943E01892B79F08091600090916100D8
S1130330019790936100809360000E94970084E687
S113034090E00E94550184E00E943E01892B59F0FF
S11303508091600090916100019690936100809378
S113036060000E94DA0083E00E943E01892B19F2AA
S11303708091600090916100019790936100809357
S113038060000E94DA00B7CF97FB072E16F40094A2
S113039007D077FD09D00E94D80107FC05D03EF4B0
S11303A0909581959F4F0895709561957F4F08951D
S11303B0AA1BBB1B51E107C0AA1FBB1FA617B70787
S11303C010F0A61BB70B881F991F5A95A9F78095A3
S10F03D09095BC01CD010895F894FFCF76
S10F03DC6400FA0ABC9E4ED6F68AFEDECF
S9030000FC
